:100000000C945E000C9486000C9486000C94860080
:100010000C9486000C9486000C9486000C94860048
:100020000C9486000C9486000C9486000C94790441
:100030000C9486000C9486000C9486000C94860028
:100040000C942F040C9486000C94FD030C94D7039D
:100050000C9486000C9486000C9486000C94860008
:100060000C9486000C9486000000000024002700F9
:100070002A0000000000250028002B0004040404CE
:100080000404040402020202020203030303030342
:10009000010204081020408001020408102001021F
:1000A00004081020000000080002010000030407FB
:1000B0000000000000000000C304540811241FBE0B
:1000C000CFEFD8E0DEBFCDBF23E0A6EFB1E001C0A7
:1000D0001D92A53AB207E1F711E0A0E0B1E0E0ED32
:1000E000F8E102C005900D92A63FB107D9F710E0E4
:1000F000CDE5D0E004C02197FE010E94490ACC352D
:10010000D107C9F70E941D050C945B0C0C940000EC
:10011000CF92DF92EF92FF920F931F93CF93DF93D3
:100120006C017A018B01C0E0D0E0CE15DF0589F0CB
:10013000D8016D918D01D601ED91FC910190F08176
:10014000E02DC6010995892B11F47E0102C021968C
:10015000ECCFC701DF91CF911F910F91FF90EF90EE
:10016000DF90CF900895FC01538D448D252F30E012
:10017000842F90E0821B930B541710F0CF960895B4
:1001800001970895FC01918D828D981761F0828D01
:10019000DF01A80FB11D5D968C91928D9F5F9F73BB
:1001A000928F90E008958FEF9FEF0895FC01918D5D
:1001B000828D981731F0828DE80FF11D858D90E0CA
:1001C00008958FEF9FEF0895FC01918D228D892F67
:1001D00090E0805C9F4F821B91098F73992708954F
:1001E00086EE92E00E94E40021E0892B09F420E0F1
:1001F000822F0895FC01848DDF01A80FB11DA35A41
:10020000BF4F2C91848D90E001968F739927848F36
:10021000A689B7892C93A089B1898C9180648C932D
:10022000938D848D981306C00288F389E02D808118
:100230008F7D80830895EF92FF920F931F93CF934A
:10024000DF93EC0181E0888F9B8D8C8D981305C026
:10025000E889F989808185FD24C0F62E0B8D10E098
:100260000F5F1F4F0F731127E02E8C8DE8120CC00B
:100270000FB607FCFACFE889F989808185FFF5CFB1
:10028000CE010E94FA00F1CF8B8DFE01E80FF11D27
:10029000E35AFF4FF0820B8FEA89FB8980818062ED
:1002A00007C0EE89FF896083E889F98980818064CD
:1002B000808381E090E0DF91CF911F910F91FF90BB
:1002C000EF900895CF93DF93EC01888D8823C9F0D8
:1002D000EA89FB89808185FD05C0A889B9898C914F
:1002E00086FD0FC00FB607FCF5CF808185FFF2CFEA
:1002F000A889B9898C9185FFEDCFCE010E94FA00C3
:10030000E7CFDF91CF91089580E090E0892B29F02D
:100310000E94F00081110C940000089590E0FC010F
:10032000EC55FF4F3491FC01E057FF4F2491FC0145
:10033000E458FF4FE491EE2309F43BC0332339F135
:10034000333091F038F43130A9F0323001F584B512
:100350008F7D12C0373091F03830A1F03430B9F4CD
:10036000809180008F7D03C0809180008F77809383
:1003700080000DC084B58F7784BD09C08091B00026
:100380008F7703C08091B0008F7D8093B000F0E044
:10039000EE0FFF1FEE58FF4FA591B4918FB7F89461
:1003A000EC91611103C020952E2301C02E2B2C93BC
:1003B0008FBF0895CF93DF9390E0FC01E057FF4F8C
:1003C0002491FC01E458FF4F8491882361F190E06F
:1003D000880F991FFC01E859FF4FC591D491FC018A
:1003E000EE58FF4FA591B491611109C09FB7F894E1
:1003F0008881209582238883EC912E230BC0623064
:1004000061F49FB7F8943881822F80958323888385
:10041000EC912E2B2C939FBF06C08FB7F894E881E8
:100420002E2B28838FBFDF91CF910895CF93DF9339
:10043000EC0160E08E810E948E0161E08E810E945D
:100440008E0160E08E810E948E018BE891E0019721
:10045000F1F7DF91CF910895CF92DF92EF92FF9263
:100460000F931F93CF93DF937C016C0187E0C80E3D
:10047000D11CC0E0D0E0062F10E0B8010C2E02C065
:10048000759567950A94E2F76170F60181916F01A5
:100490000E948E012196C430D10579F7C701DF9102
:1004A000CF911F910F91FF90EF90DF90CF900C9420
:1004B0001602CF92DF92EF92FF920F931F93CF938A
:1004C000DF93EC01F62E642F8C810E948E018D81CA
:1004D0008F3F19F060E00E948E018F850F2D10E094
:1004E00084FF25C06E0187E0C80ED11CE12CF12CE1
:1004F000B8010E2C02C0759567950A94E2F76170F9
:10050000F60181916F010E948E01FFEFEF1AFF0A41
:1005100088E0E816F10461F7CE01DF91CF911F91D9
:100520000F91FF90EF90DF90CF900C941602B801DE
:1005300084E0759567958A95E1F7CE010E942C02BB
:100540006F2DCE01DF91CF911F910F91FF90EF9012
:10055000DF90CF900C942C0241E00E94590281E080
:1005600090E0089540E00C945902EF92FF920F93AF
:100570001F93CF93DF93EC01623018F08F85886072
:100580008F876B8B1C8A80E48D8B80E18E8B80E55E
:100590008F8B61E08C810E94DA018D818F3F19F091
:1005A00061E00E94DA0161E08E810E94DA017E0141
:1005B00087E0E80EF11C00E010E08F8584FD03C0A9
:1005C00084E090E002C088E090E0081719074CF43E
:1005D00061E0F70181917F010E94DA010F5F1F4FF7
:1005E000ECCF8BE39DE00197F1F760E08C810E94F6
:1005F0008E0160E08E810E948E018D818F3F19F007
:1006000060E00E948E016F8564FD1DC063E0CE0135
:100610000E942C020BE416E4C8010197F1F763E095
:10062000CE010E942C02C8010197F1F763E0CE01D0
:100630000E942C0283E592E00197F1F762E0CE017F
:100640000E942C0216C06062CE010E94B2028BE4AE
:1006500096E40197F1F76F856062CE010E94B202C5
:1006600083E592E00197F1F76F856062CE010E9409
:10067000B2026F856062CE010E94B20284E0888B74
:100680006CE0CE010E94B20261E0CE010E94B20293
:100690008BE39FE10197F1F782E0898B66E0CE0161
:1006A000DF91CF911F910F91FF90EF900C94B202C8
:1006B000089580E090E00895009769F0FC010190B2
:1006C0000020E9F73197AF01481B590BBC0186EEBA
:1006D00092E00C94880080E090E008950E94460C1F
:1006E000EF92FF920F931F93CF93DF93EC017B0167
:1006F0008A0188819981009729F02A813B812417FA
:100700003507F8F4B8016F5F7F4F0E947C0B0097AC
:1007100059F0998388831B830A832C813D81232B85
:1007200081F4FC0110820DC088819981009711F03D
:100730000E94E40A198218821D821C821B821A827E
:1007400007C01D830C83B701888199810E94540CD6
:10075000CE01DF91CF911F910F91FF90EF900895FF
:10076000009771F0FC0101900020E9F73197AF018B
:10077000481B590BBC0183E893E00E94700314C02E
:100780008091830390918403009711F00E94E40A02
:1007900010928403109283031092880310928703AF
:1007A000109286031092850383E893E008951F92C8
:1007B0000F920FB60F9211242F933F934F935F9395
:1007C0006F937F938F939F93AF93BF93EF93FF9319
:1007D00086EE92E00E94FA00FF91EF91BF91AF91F7
:1007E0009F918F917F916F915F914F913F912F9149
:1007F0000F900FBE0F901F9018951F920F920FB67B
:100800000F9211242F938F939F93EF93FF93E09177
:10081000F602F091F7028081E091FC02F091FD0276
:1008200082FD12C090818091FF028F5F8F732091B3
:100830000003821751F0E091FF02F0E0EA51FD4F12
:10084000958F8093FF0201C08081FF91EF919F916E
:100850008F912F910F900FBE0F901F9018951F92A0
:100860000F920FB60F9211242F933F938F939F9364
:10087000AF93BF938091FD019091FE01A091FF0184
:10088000B09100023091FC0123E0230F2D3720F4BA
:100890000196A11DB11D05C026E8230F0296A11DDA
:1008A000B11D2093FC018093FD019093FE01A09364
:1008B000FF01B09300028091F8019091F901A0919D
:1008C000FA01B091FB010196A11DB11D8093F801C1
:1008D0009093F901A093FA01B093FB01BF91AF91FE
:1008E0009F918F913F912F910F900FBE0F901F906E
:1008F00018951F920F920FB60F9211242F938F937A
:100900009F93EF93FF938091E4029091E50201960B
:100910009093E5028093E402E091F601F091F701F3
:1009200083E480937C0080917A00806480937A00D5
:1009300080917A0086FDFCCF80917800209179002B
:10094000EE0FFF1FE85FFD4F90E0922B91838083B5
:100950008091F6019091F70101968633910529F077
:100960009093F7018093F60104C01092F701109262
:10097000F601FF91EF919F918F912F910F900FBEF4
:100980000F901F901895E6EEF2E01382128288EE27
:1009900093E0A0E0B0E084839583A683B7838AE0E8
:1009A00091E09183808385EC90E09587848784EC47
:1009B00090E09787868780EC90E0918B808B81EC2C
:1009C00090E0938B828B82EC90E0958B848B86EC0D
:1009D00090E0978B868B118E128E138E148EE9E821
:1009E000F3E0138212828CE191E0918380838CE0AA
:1009F00084838FEF85838BE0868385E0878384E023
:100A0000808783E0818782E082871386148615863B
:100A10001686178661E0CF010E94B502E3E8F3E095
:100A200011821082138212821582148240E050E0FB
:100A30006DE271E0CF010C947003CF93DF93CDB7DB
:100A4000DEB7A3970FB6F894DEBF0FBECDBF789484
:100A500084B5826084BD84B5816084BD85B58260C3
:100A600085BD85B5816085BD80916E008160809374
:100A70006E001092810080918100826080938100DD
:100A800080918100816080938100809180008160ED
:100A9000809380008091B10084608093B100809148
:100AA000B00081608093B00080917A008460809370
:100AB0007A0080917A00826080937A0080917A0037
:100AC000816080937A0080917A00806880937A00B8
:100AD0001092C10060E081E10E94DA0161E088E0EB
:100AE0000E94DA0161E089E00E94DA0161E08DE0B4
:100AF0000E94DA0161E081E00E94DA01F89462E08C
:100B000089E893E00E94B502E091F602F091F702C5
:100B100082E08083E091F202F091F3021082E09192
:100B2000F402F091F5028FEC80831092FE02E091C6
:100B3000FA02F091FB0286E08083E091F802F091E6
:100B4000F902808180618083E091F802F091F902DE
:100B5000808188608083E091F802F091F9028081C1
:100B600080688083E091F802F091F90280818F7DA6
:100B70008083109280001092810010928500109264
:100B8000840080ED97E090938900809388008091A5
:100B900081008860809381008091810082608093D1
:100BA000810080916F00826080936F0078949AE05A
:100BB000492E512C612C712C22242394312C8091AC
:100BC000E4029091E502C7974CF48091E402909181
:100BD000E502892B09F065C2789463C2F8941092FB
:100BE000E5021092E40284E291E00E945C0386E751
:100BF00092E09BA38AA37C01C12CD12C00E010E0E1
:100C0000E8E0F2E081E090E080179107C4F04281D3
:100C10005381DF01AC0DBD1D12962D913C911397B0
:100C2000429FB001439F700D529F700D1124D70158
:100C30002D913C911197620F731F6D937C930196D8
:100C400032968633910501F7F701219131917F01A9
:100C50004901330FAA08BB08B7FE26C0E091E6029F
:100C6000F091E7020190F081E02D6DE286EE92E0D6
:100C7000099522273327A901281939094A095B094F
:100C800019A2CE0181965C01CA01B901A3019201AA
:100C90000E94270A605DD5016E935D012115310523
:100CA0004105510589F715C0A501940119A2FE015E
:100CB000B1965F01CA01B901A30192010E94270AFE
:100CC000605DD5016E935D0121153105410551052A
:100CD00089F7C5010E945C0389E291E00E945C03F0
:100CE0000F5F1F4FB2E0CB1AD1080633110509F090
:100CF00087CF8BE291E00E945C0386E7E82E82E0DA
:100D0000F82E01E010E0809107028111B5C1F701D2
:100D100082819381813197420CF4AEC1B801012EDA
:100D2000000C880B990B0E9461082FE632E143E822
:100D30005AE30E94C0089B01AC0160E070E080E8CB
:100D40009FE30E94B5094B015C016093030270931D
:100D50000402809305029093060221E0209307028B
:100D600020E030E049EB52E40E945A0887FF03C0BC
:100D70008EE291E037C120E030E044EC52E4C5015E
:100D8000B4010E945A0887FF03C086E391E02AC19C
:100D900026EF38EA4FEC52E4C501B4010E945A082C
:100DA00087FF03C08EE391E01DC120E030E04CEDF1
:100DB00052E4C501B4010E945A0887FF03C086E4CB
:100DC00091E010C12BE734E149EE52E4C501B401D2
:100DD0000E945A0887FF03C08EE491E003C124EA11
:100DE00030EF46EF52E4C501B4010E945A0887FF74
:100DF00003C086E591E0F6C02CE53FEC42E053E409
:100E0000C501B4010E945A0887FF03C08EE591E036
:100E1000E9C02AE037E94AE053E4C501B4010E9481
:100E20005A0887FF03C086E691E0DCC02BE734ED6B
:100E300042E153E4C501B4010E945A0887FF03C090
:100E40008EE691E0CFC02CE53FE84BE153E4C501CD
:100E5000B4010E945A0887FF03C086E791E0C2C030
:100E60002CE53FEC44E253E4C501B4010E945A086A
:100E700087FF03C08EE791E0B5C029E23CE94EE26E
:100E800053E4C501B4010E945A0887FF03C086E8F5
:100E900091E0A8C020E030E049E353E4C501B4018B
:100EA0000E945A0887FF03C08EE891E09BC020E0B3
:100EB00030E044E453E4C501B4010E945A0887FFBE
:100EC00003C086E991E08EC026E636EA4FE453E49B
:100ED000C501B4010E945A0887FF03C08EE991E062
:100EE00081C020E030E04CE553E4C501B4010E942C
:100EF0005A0887FF03C086EA91E074C02BE734E10B
:100F000049E653E4C501B4010E945A0887FF03C0B3
:100F10008EEA91E067C024EA30EF46E753E4C5016A
:100F2000B4010E945A0887FF03C086EB91E05AC0C3
:100F300024EA30ED42E853E4C501B4010E945A08A6
:100F400087FF03C08EEB91E04DC02AE037E94AE805
:100F500053E4C501B4010E945A0887FF03C086EC20
:100F600091E040C02BE734ED42E953E4C501B40100
:100F70000E945A0887FF03C08EEC91E033C024EA38
:100F800030E94BE953E4C501B4010E945A0887FFD8
:100F900003C086ED91E026C024EA30ED44EA53E434
:100FA000C501B4010E945A0887FF03C08EED91E08D
:100FB00019C021E73DE94EEA53E4C501B4010E949E
:100FC0005A0887FF03C086EE91E00CC028EB3EEF85
:100FD00048EB53E4C501B4010E945A0887FF04C0DE
:100FE0008EEE91E00E94B0034091870350918803F8
:100FF000609183037091840386EE92E00E948800E2
:10100000409187035091880360918303709184031A
:1010100089E893E00E948800809101029091020289
:101020000097A1F4E1E080919C038111E0E0E1955B
:10103000F0E0E757FC4F6489606889E893E00E941C
:10104000B202309202022092010216C00197A1F46E
:10105000E0919C03E23010F4E15001C0E1E0F0E0E7
:10106000E757FC4F6489606889E893E00E94B20208
:1010700010920202109201020F5F1F4F82E0E80EF1
:10108000F11C0633110509F03ECE10920702AAA109
:10109000BBA11D921D92BBA3AAA3A25EB240B9F749
:1010A00094CD0E9484018BCD809183039091840321
:1010B0000C94E40A0E949C0808F481E00895E894E6
:1010C00009C097FB3EF490958095709561957F4F90
:1010D0008F4F9F4F9923A9F0F92F96E9BB2793953E
:1010E000F695879577956795B795F111F8CFFAF44E
:1010F000BB0F11F460FF1BC06F5F7F4F8F4F9F4F7F
:1011000016C0882311F096E911C0772321F09EE8DC
:10111000872F762F05C0662371F096E8862F70E042
:1011200060E02AF09A95660F771F881FDAF7880F1C
:101130009695879597F90895990F0008550FAA0B72
:10114000E0E8FEEF16161706E807F907C0F01216DA
:101150001306E407F50798F0621B730B840B950BDD
:1011600039F40A2661F0232B242B252B21F4089532
:101170000A2609F4A140A6958FEF811D811D0895CF
:101180000E94D3080C9444090E94360938F00E944A
:101190003D0920F0952311F00C942D090C9433098E
:1011A00011240C9478090E94550970F3959FC1F39E
:1011B000950F50E0551F629FF001729FBB27F00D05
:1011C000B11D639FAA27F00DB11DAA1F649F66275A
:1011D000B00DA11D661F829F2227B00DA11D621FA9
:1011E000739FB00DA11D621F839FA00D611D221F63
:1011F000749F3327A00D611D231F849F600D211D47
:10120000822F762F6A2F11249F5750409AF0F1F0C9
:1012100088234AF0EE0FFF1FBB1F661F771F881F32
:1012200091505040A9F79E3F510580F00C942D0934
:101230000C9478095F3FE4F3983ED4F38695779554
:101240006795B795F795E7959F5FC1F7FE2B880FD8
:10125000911D9695879597F9089597F99F6780E86E
:1012600070E060E008959FEF80EC089500240A94F8
:101270001616170618060906089500240A94121671
:101280001306140605060895092E0394000C11F4A4
:10129000882352F0BB0F40F4BF2B11F460FF04C051
:1012A0006F5F7F4F8F4F9F4F089557FD9058440FAA
:1012B000551F59F05F3F71F04795880F97FB991FB5
:1012C00061F09F3F79F08795089512161306140672
:1012D000551FF2CF4695F1DF08C0161617061806FF
:1012E000991FF1CF86957105610508940895E894DA
:1012F000BB2766277727CB0197F908952F923F9256
:101300004F925F926F927F928F929F92AF92BF9215
:10131000CF92DF92EF92FF920F931F93CF93DF93C1
:10132000CDB7DEB7CA1BDB0B0FB6F894DEBF0FBE1E
:10133000CDBF09942A88398848885F846E847D846B
:101340008C849B84AA84B984C884DF80EE80FD806D
:101350000C811B81AA81B981CE0FD11D0FB6F894E3
:10136000DEBF0FBECDBFED0108950E94C9090C94E8
:1013700044090E943D0958F00E94360940F029F4C2
:101380005F3F29F00C942D0951110C9478090C94AD
:1013900033090E94550968F39923B1F3552391F35A
:1013A000951B550BBB27AA2762177307840738F0D4
:1013B0009F5F5F4F220F331F441FAA1FA9F335D031
:1013C0000E2E3AF0E0E832D091505040E695001CE5
:1013D000CAF72BD0FE2F29D0660F771F881FBB1F9F
:1013E000261737074807AB07B0E809F0BB0B802D7D
:1013F000BF01FF2793585F4F3AF09E3F510578F0A9
:101400000C942D090C9478095F3FE4F3983ED4F3D3
:10141000869577956795B795F7959F5FC9F7880F7C
:10142000911D9695879597F90895E1E0660F771FCE
:10143000881FBB1F621773078407BA0720F0621B5F
:10144000730B840BBA0BEE1F88F7E0950895A1E2A9
:101450001A2EAA1BBB1BFD010DC0AA1FBB1FEE1F2E
:10146000FF1FA217B307E407F50720F0A21BB30B79
:10147000E40BF50B661F771F881F991F1A9469F7F5
:1014800060957095809590959B01AC01BD01CF0151
:101490000895EE0FFF1F0590F491E02D0994CF936E
:1014A000DF938230910510F482E090E0E091A30395
:1014B000F091A40320E030E0C0E0D0E0309711F1DB
:1014C0004081518148175907C0F04817590761F406
:1014D00082819381209719F09B838A832BC09093FC
:1014E000A4038093A30326C02115310519F04217E8
:1014F000530718F49A01BE01DF01EF010280F38166
:10150000E02DDCCF2115310509F1281B390B2430E2
:10151000310590F412968D919C9113976115710588
:1015200021F0FB019383828304C09093A4038093F2
:10153000A303FD01329644C0FD01E20FF31F819326
:101540009193225031092D933C933AC02091A103ED
:101550003091A203232B41F4209102013091030129
:101560003093A2032093A103209100013091010147
:101570002115310541F42DB73EB74091040150913A
:101580000501241B350BE091A103F091A203E217A2
:10159000F307A0F42E1B3F0B2817390778F0AC0196
:1015A0004E5F5F4F2417350748F04E0F5F1F509373
:1015B000A2034093A1038193919302C0E0E0F0E085
:1015C000CF01DF91CF9108950F931F93CF93DF93B6
:1015D000009709F48CC0FC013297138212820091AB
:1015E000A3031091A4030115110581F42081318119
:1015F000820F931F2091A1033091A203281739076E
:1016000079F5F093A203E093A10371C0D80140E003
:1016100050E0AE17BF0750F412962D913C911397EE
:10162000AD012115310509F1D901F3CF9D01DA0191
:101630003383228360817181860F971F82179307FE
:1016400069F4EC0128813981260F371F2E5F3F4F47
:10165000318320838A819B8193838283452B29F464
:10166000F093A403E093A30342C01396FC93EE937C
:101670001297ED01499159919E01240F351FE217F0
:10168000F30771F480819181840F951F0296119662
:101690009C938E938281938113969C938E93129741
:1016A000E0E0F0E0D80112968D919C91139700979D
:1016B00019F0F8018C01F6CF8D919C9198012E5F65
:1016C0003F4F820F931F2091A1033091A20328174F
:1016D000390769F4309729F41092A4031092A303F8
:1016E00002C0138212821093A2030093A103DF9120
:1016F000CF911F910F910895A0E0B0E0E2E8FBE0E8
:101700000C948209EC01009721F4CB010E944F0A4E
:10171000B8C0FC01E60FF71F9C0122503109E21707
:10172000F30708F4ACC0D9010D911C91119706176D
:101730001707B0F00530110508F49FC0C8010497E1
:101740008617970708F499C002501109061B170B5A
:10175000019311936D937C93CF010E94E40A8DC095
:101760005B01A01AB10A4C01800E911EA091A30347
:10177000B091A40340E050E0E12CF12C109709F463
:101780004AC0A815B905D1F56D907C9011976301F9
:1017900082E0C80ED11CCA14DB0480F1A3014A19EF
:1017A0005B096A0182E0C80ED11C1296BC901297A8
:1017B0001396AC91B5E0CB16D10440F0B282A3836E
:1017C00051834083D9016D937C930AC00E5F1F4FF4
:1017D000C301800F911FF90191838083EB2DFA2FB4
:1017E000E114F10431F0D7011396FC93EE931297B4
:1017F00044C0F093A403E093A3033FC08D919C9158
:1018000011974817590708F4AC017D0112960D9005
:10181000BC91A02DB3CF8091A1039091A203881514
:101820009905E1F446175707C8F48091000190919B
:101830000101009741F48DB79EB74091040150918A
:101840000501841B950BE817F907C8F4F093A20370
:10185000E093A103F901718360830FC0CB010E9463
:101860004F0A7C01009759F0A801BE010E944B0C61
:10187000CE010E94E40AC70104C0CE0102C080E08C
:1018800090E0CDB7DEB7EEE00C949E0981E090E0E9
:10189000F8940C945B0CFB01DC0102C001900D92EA
:1018A00041505040D8F70895FB01DC0101900D92A2
:1018B0000020E1F7089510E0CDE5D0E004C0FE017E
:1018C0000E94490A2196CE35D107C9F7F894FFCF77
:1018D0000000A5038000000000001B018800B30089
:1018E0006201E400C200D60000000000AC028800E3
:1018F00059035803525B695D002D000D0A00463202
:101900002020202020004623322F47623200473219
:101910002020202020004723322F41623200413214
:101920002020202020004123322F42623200423208
:10193000202020202000433320202020200043238B
:10194000332F4462330044332020202020004423DE
:10195000332F4562330045332020202020004633BA
:101960002020202020004623332F476233004733B6
:101970002020202020004723332F416233004133B1
:101980002020202020004123332F426233004233A5
:10199000202020202000633420202020200043230A
:1019A000342F44623400443420202020200044237B
:1019B000342F456234004534202020202000463456
:0619C00020202020200081
:107E0000112484B714BE81FFF0D085E080938100F7
:107E100082E08093C00088E18093C10086E0809377
:107E2000C20080E18093C4008EE0C9D0259A86E02C
:107E300020E33CEF91E0309385002093840096BBD3
:107E4000B09BFECF1D9AA8958150A9F7CC24DD24C4
:107E500088248394B5E0AB2EA1E19A2EF3E0BF2EE7
:107E6000A2D0813461F49FD0082FAFD0023811F036
:107E7000013811F484E001C083E08DD089C08234E0
:107E800011F484E103C0853419F485E0A6D080C0E4
:107E9000853579F488D0E82EFF2485D0082F10E0AE
:107EA000102F00270E291F29000F111F8ED06801E7
:107EB0006FC0863521F484E090D080E0DECF843638
:107EC00009F040C070D06FD0082F6DD080E0C81688
:107ED00080E7D80618F4F601B7BEE895C0E0D1E017
:107EE00062D089930C17E1F7F0E0CF16F0E7DF06D8
:107EF00018F0F601B7BEE89568D007B600FCFDCFD4
:107F0000A601A0E0B1E02C9130E011968C91119780
:107F100090E0982F8827822B932B1296FA010C0160
:107F200087BEE89511244E5F5F4FF1E0A038BF0790
:107F300051F7F601A7BEE89507B600FCFDCF97BE46
:107F4000E89526C08437B1F42ED02DD0F82E2BD052
:107F50003CD0F601EF2C8F010F5F1F4F84911BD097
:107F6000EA94F801C1F70894C11CD11CFA94CF0C13
:107F7000D11C0EC0853739F428D08EE10CD085E9AC
:107F80000AD08FE07ACF813511F488E018D01DD067
:107F900080E101D065CF982F8091C00085FFFCCF94
:107FA0009093C60008958091C00087FFFCCF809118
:107FB000C00084FD01C0A8958091C6000895E0E648
:107FC000F0E098E1908380830895EDDF803219F02E
:107FD00088E0F5DFFFCF84E1DECF1F93182FE3DFCA
:107FE0001150E9F7F2DF1F91089580E0E8DFEE27F6
:047FF000FF270994CA
:027FFE00040479
:0400000300007E007B
:00000001FF
